{"src/optimization/PackedStorage.sol":{"PackedStorage":{"abi":[{"inputs":[{"internalType":"uint256","name":"","type":"uint256"}],"name":"positions","outputs":[{"internalType":"uint128","name":"liquidity","type":"uint128"},{"internalType":"int24","name":"tickLower","type":"int24"},{"internalType":"int24","name":"tickUpper","type":"int24"},{"internalType":"uint80","name":"nonce","type":"uint80"}],"stateMutability":"view","type":"function"}],"evm":{"bytecode":{"linkReferences":{},"object":"608060405234801561000f575f80fd5b506101518061001d5f395ff3fe608060405234801561000f575f80fd5b5060043610610029575f3560e01c806399fbab881461002d575b5f80fd5b6100bb61003b366004610104565b5f602081905290815260409020546fffffffffffffffffffffffffffffffff8116907001000000000000000000000000000000008104600290810b91730100000000000000000000000000000000000000810490910b90760100000000000000000000000000000000000000000000900469ffffffffffffffffffff1684565b604080516fffffffffffffffffffffffffffffffff9095168552600293840b60208601529190920b9083015269ffffffffffffffffffff16606082015260800160405180910390f35b5f60208284031215610114575f80fd5b503591905056fea2646970667358221220326cf1b5f6a1d9942a410c9e29c329564bd21c6d7b80c96c353a55abc3abaed964736f6c63430008180033","opcodes":"PUSH1 0x80 PUSH1 0x40 MSTORE CALLVALUE DUP1 ISZERO PUSH2 0xF JUMPI PUSH0 DUP1 REVERT JUMPDEST POP PUSH2 0x151 DUP1 PUSH2 0x1D PUSH0 CODECOPY PUSH0 RETURN INVALID PUSH1 0x80 PUSH1 0x40 MSTORE CALLVALUE DUP1 ISZERO PUSH2 0xF JUMPI PUSH0 DUP1 REVERT JUMPDEST POP PUSH1 0x4 CALLDATASIZE LT PUSH2 0x29 JUMPI PUSH0 CALLDATALOAD PUSH1 0xE0 SHR DUP1 PUSH4 0x99FBAB88 EQ PUSH2 0x2D JUMPI JUMPDEST PUSH0 DUP1 REVERT JUMPDEST PUSH2 0xBB PUSH2 0x3B CALLDATASIZE PUSH1 0x4 PUSH2 0x104 JUMP JUMPDEST PUSH0 PUSH1 0x20 DUP2 SWAP1 MSTORE SWAP1 DUP2 MSTORE PUSH1 0x40 SWAP1 KECCAK256 SLOAD PUSH16 0xFFFFFFFFFFFFFFFFFFFFFFFFFFFFFFFF DUP2 AND SWAP1 PUSH17 0x100000000000000000000000000000000 DUP2 DIV PUSH1 0x2 SWAP1 DUP2 SIGNEXTEND SWAP2 PUSH20 0x100000000000000000000000000000000000000 DUP2 DIV SWAP1 SWAP2 SIGNEXTEND SWAP1 PUSH23 0x100000000000000000000000000000000000000000000 SWAP1 DIV PUSH10 0xFFFFFFFFFFFFFFFFFFFF AND DUP5 JUMP JUMPDEST PUSH1 0x40 DUP1 MLOAD PUSH16 0xFFFFFFFFFFFFFFFFFFFFFFFFFFFFFFFF SWAP1 SWAP6 AND DUP6 MSTORE PUSH1 0x2 SWAP4 DUP5 SIGNEXTEND PUSH1 0x20 DUP7 ADD MSTORE SWAP2 SWAP1 SWAP3 SIGNEXTEND SWAP1 DUP4 ADD MSTORE PUSH10 0xFFFFFFFFFFFFFFFFFFFF AND PUSH1 0x60 DUP3 ADD MSTORE PUSH1 0x80 ADD PUSH1 0x40 MLOAD DUP1 SWAP2 SUB SWAP1 RETURN JUMPDEST PUSH0 PUSH1 0x20 DUP3 DUP5 SUB SLT ISZERO PUSH2 0x114 JUMPI PUSH0 DUP1 REVERT JUMPDEST POP CALLDATALOAD SWAP2 SWAP1 POP JUMP INVALID LOG2 PUSH5 0x6970667358 0x22 SLT KECCAK256 ORIGIN PUSH13 0xF1B5F6A1D9942A410C9E29C329 JUMP 0x4B 0xD2 SHR PUSH14 0x7B80C96C353A55ABC3ABAED96473 PUSH16 0x6C634300081800330000000000000000 "},"methodIdentifiers":{"positions(uint256)":"99fbab88"}}}}}