{
  "_format": "hh-sol-artifact-1",
  "contractName": "UncheckedMath",
  "sourceName": "src/optimization/UncheckedMath.sol",
  "abi": [
    {
      "inputs": [
        {
          "internalType": "uint256[]",
          "name": "values",
          "type": "uint256[]"
        }
      ],
      "name": "sum",
      "outputs": [
        {
          "internalType": "uint256",
          "name": "total",
          "type": "uint256"
        }
      ],
      "stateMutability": "pure",
      "type": "function"
    }
  ],
  "bytecode": "0x608060405234801561000f575f80fd5b5061015e8061001d5f395ff3fe608060405234801561000f575f80fd5b5060043610610029575f3560e01c80630194db8e1461002d575b5f80fd5b61004061003b36600461008c565b610052565b60405190815260200160405180910390f35b5f805b828110156100855783838281811061006f5761006f6100fb565b9050602002013582019150806001019050610055565b5092915050565b5f806020838503121561009d575f80fd5b823567ffffffffffffffff808211156100b4575f80fd5b818501915085601f8301126100c7575f80fd5b8135818111156100d5575f80fd5b8660208260051b85010111156100e9575f80fd5b60209290920196919550909350505050565b7f4e487b71000000000000000000000000000000000000000000000000000000005f52603260045260245ffdfea264697066735822122036ef61baea49fa755e2877111bd2a9f1c6743995aa86df66ad3cb37a425360f064736f6c63430008180033",
  "linkReferences": {},
  "deployedLinkReferences": {}
}